{
  "contractName": "Retrieve",
  "abi": [
    {
      "constant": true,
      "inputs": [
        {
          "name": "key",
          "type": "bytes32"
        }
      ],
      "name": "RetrieveData",
      "outputs": [
        {
          "name": "",
          "type": "bytes32"
        },
        {
          "name": "",
          "type": "bytes32"
        }
      ],
      "payable": false,
      "stateMutability": "view",
      "type": "function"
    },
    {
      "inputs": [
        {
          "name": "DContractAddress",
          "type": "address"
        }
      ],
      "payable": false,
      "stateMutability": "nonpayable",
      "type": "constructor"
    }
  ],
  "bytecode": "0x6060604052341561000f57600080fd5b60405160208061026083398101604052808051906020019091905050806000806101000a81548173ffffffffffffffffffffffffffffffffffffffff021916908373ffffffffffffffffffffffffffffffffffffffff160217905550506101e58061007b6000396000f300606060405260043610610041576000357c0100000000000000000000000000000000000000000000000000000000900463ffffffff1680638dd4f65214610046575b600080fd5b341561005157600080fd5b61006b600480803560001916906020019091905050610098565b60405180836000191660001916815260200182600019166000191681526020019250505060405180910390f35b6000806100a3610199565b6000809054906101000a900473ffffffffffffffffffffffffffffffffffffffff1673ffffffffffffffffffffffffffffffffffffffff166349fc56f8856000604051604001526040518263ffffffff167c01000000000000000000000000000000000000000000000000000000000281526004018082600019166000191681526020019150506040805180830381600087803b151561014257600080fd5b6102c65a03f1151561015357600080fd5b5050506040518051906020018051905082600001836020018260001916600019168152508260001916600019168152505050806000015181602001519250925050915091565b6040805190810160405280600080191681526020016000801916815250905600a165627a7a723058205dfaf7fb18ca4c0569dfcaf228b5a25e65632f430a9d645427e07f2f253f46280029",
  "source": "pragma solidity ^0.4.18;\n\ncontract SimpleStorage {\n  uint storedData;\n\n  struct PushData{\n    bytes32 name;\n    bytes32 flight;\n\n  }\n  mapping(bytes32 => PushData) public pushDatas;\n\n  function StoreData(bytes32 key,bytes32 name, bytes32 flight) public returns (bool s){\n    pushDatas[key].name = name;\n    pushDatas[key].flight = flight;\n    return true;\n  }\n\n  function set(uint x) public {\n    storedData = x;\n  }\n\n  function get() public view returns (uint) {\n    return storedData;\n  }\n}\n\n\ncontract Retrieve {\n\n  SimpleStorage d;\n\n\n  struct PushData{\n    bytes32 name;\n    bytes32 flight;\n\n  }\n\n  function Retrieve(address DContractAddress) {\n    d = SimpleStorage(DContractAddress);\n  }\n\n  function RetrieveData(bytes32 key)\n    public\n    constant\n    returns(bytes32, bytes32)\n  {\n    // Declare a temporary \"doc\" to hold a DocumentStruct\n    PushData memory doc;\n    // Get it from the \"public\" mapping's free getter.\n    (doc.name, doc.flight) = d.pushDatas(key);\n    // return values with a fixed sized layout\n    return(doc.name, doc.flight);\n  }\n}\n",
  "sourcePath": "/home/ghost/apps/bagdrop/contracts/SimpleStorage.sol",
  "compiler": {
    "name": "solc",
    "version": "0.4.18+commit.9cf6e910.Emscripten.clang"
  },
  "schemaVersion": "1.0.1",
  "updatedAt": "2018-01-28T05:33:23.202Z"
}