{
  "contractName": "SimpleStorage",
  "abi": [
    {
      "constant": false,
      "inputs": [
        {
          "name": "key",
          "type": "bytes32"
        },
        {
          "name": "name",
          "type": "bytes32"
        },
        {
          "name": "flight",
          "type": "bytes32"
        },
        {
          "name": "from",
          "type": "bytes32"
        },
        {
          "name": "to",
          "type": "bytes32"
        }
      ],
      "name": "StoreData",
      "outputs": [
        {
          "name": "s",
          "type": "bool"
        },
        {
          "name": "flight",
          "type": "bytes32"
        }
      ],
      "payable": false,
      "stateMutability": "nonpayable",
      "type": "function"
    },
    {
      "constant": true,
      "inputs": [
        {
          "name": "",
          "type": "bytes32"
        }
      ],
      "name": "pushDatas",
      "outputs": [
        {
          "name": "name",
          "type": "bytes32"
        },
        {
          "name": "flight",
          "type": "bytes32"
        },
        {
          "name": "from",
          "type": "bytes32"
        },
        {
          "name": "to",
          "type": "bytes32"
        }
      ],
      "payable": false,
      "stateMutability": "view",
      "type": "function"
    },
    {
      "constant": false,
      "inputs": [
        {
          "name": "x",
          "type": "uint256"
        }
      ],
      "name": "set",
      "outputs": [
        {
          "name": "",
          "type": "uint256"
        }
      ],
      "payable": false,
      "stateMutability": "nonpayable",
      "type": "function"
    },
    {
      "constant": true,
      "inputs": [
        {
          "name": "key",
          "type": "bytes32"
        },
        {
          "name": "name",
          "type": "bytes32"
        },
        {
          "name": "flight",
          "type": "bytes32"
        }
      ],
      "name": "get",
      "outputs": [
        {
          "name": "",
          "type": "uint256"
        },
        {
          "name": "",
          "type": "bytes32"
        }
      ],
      "payable": false,
      "stateMutability": "view",
      "type": "function"
    },
    {
      "constant": true,
      "inputs": [
        {
          "name": "key",
          "type": "bytes32"
        },
        {
          "name": "name",
          "type": "bytes32"
        },
        {
          "name": "flight",
          "type": "bytes32"
        }
      ],
      "name": "RetrieveData",
      "outputs": [
        {
          "name": "",
          "type": "bytes32"
        },
        {
          "name": "",
          "type": "bytes32"
        },
        {
          "name": "",
          "type": "bytes32"
        },
        {
          "name": "",
          "type": "bytes32"
        }
      ],
      "payable": false,
      "stateMutability": "view",
      "type": "function"
    }
  ],
  "bytecode": "0x6060604052341561000f57600080fd5b6104828061001e6000396000f30060606040526004361061006d576000357c0100000000000000000000000000000000000000000000000000000000900463ffffffff1680632cc83f081461007257806349fc56f8146100e557806360fe47b1146101555780636d4ce63c146101785780638dd4f652146101a1575b600080fd5b341561007d57600080fd5b6100cb60048080356000191690602001909190803560001916906020019091908035600019169060200190919080356000191690602001909190803560001916906020019091905050610211565b604051808215151515815260200191505060405180910390f35b34156100f057600080fd5b61010a6004808035600019169060200190919050506102bc565b60405180856000191660001916815260200184600019166000191681526020018360001916600019168152602001826000191660001916815260200194505050505060405180910390f35b341561016057600080fd5b61017660048080359060200190919050506102ec565b005b341561018357600080fd5b61018b6102f6565b6040518082815260200191505060405180910390f35b34156101ac57600080fd5b6101c66004808035600019169060200190919050506102ff565b60405180856000191660001916815260200184600019166000191681526020018360001916600019168152602001826000191660001916815260200194505050505060405180910390f35b60008460016000886000191660001916815260200190815260200160002060000181600019169055508360016000886000191660001916815260200190815260200160002060010181600019169055508260016000886000191660001916815260200190815260200160002060020181600019169055508160016000886000191660001916815260200190815260200160002060030181600019169055506001905095945050505050565b60016020528060005260406000206000915090508060000154908060010154908060020154908060030154905084565b8060008190555050565b60008054905090565b60008060008061030d610421565b3073ffffffffffffffffffffffffffffffffffffffff166349fc56f8876000604051608001526040518263ffffffff167c0100000000000000000000000000000000000000000000000000000000028152600401808260001916600019168152602001915050608060405180830381600087803b151561038c57600080fd5b6102c65a03f1151561039d57600080fd5b50505060405180519060200180519060200180519060200180519050846000018560200186604001876060018460001916600019168152508460001916600019168152508460001916600019168152508460001916600019168152505050505080600001518160200151826040015183606001519450945094509450509193509193565b6080604051908101604052806000801916815260200160008019168152602001600080191681526020016000801916815250905600a165627a7a72305820521dd715ae8eccd2c33f23a126819594f063d0af9c302a26fbf0e9f725db0e550029",
  "source": "pragma solidity ^0.4.18;\n\ncontract SimpleStorage {\n  uint storedData;\n\n  struct PushData{\n    bytes32 name;\n    bytes32 flight;\n    bytes32 from;\n    bytes32 to;\n  }\n  mapping(bytes32 => PushData) public pushDatas;\n\n  function StoreData(bytes32 key,bytes32 name, bytes32 flight, bytes32 from, bytes32 to) public returns (bool s){\n    pushDatas[key].name = name;\n    pushDatas[key].flight = flight;\n    pushDatas[key].from = from;\n    pushDatas[key].to = to;\n    return true;\n  }\n\n  function set(uint x) public {\n    storedData = x;\n  }\n\n  function get() public view returns (uint) {\n    return storedData;\n  }\n\n  function RetrieveData(bytes32 key)\n    public\n    constant\n    returns(bytes32, bytes32,bytes32,bytes32)\n  {\n\n    PushData memory doc;\n\n    (doc.name, doc.flight,doc.from,doc.to) = this.pushDatas(key);\n\n    return(doc.name, doc.flight,doc.from,doc.to);\n  }\n}\n",
  "sourcePath": "/home/ghost/apps/bagdrop/contracts/SimpleStorage.sol",
  "compiler": {
    "name": "solc",
    "version": "0.4.18+commit.9cf6e910.Emscripten.clang"
  },
  "schemaVersion": "1.0.1",
  "updatedAt": "2018-04-16T08:18:44.767Z"
}